:020000040800F2
:10000000D00C00200101000863150008411400080D
:100010006115000895010008CD19000800000000D6
:10002000000000000000000000000000871500082C
:1000300097010008000000008515000889150008D8
:100040001B0100081B0100081B0100081B01000820
:100050001B0100081B0100081B0100081B01000810
:10006000990100081B0100081B0100081B01000882
:100070001B0100081B0100081B0100081B010008F0
:100080001B0100081B0100081B0100081B010008E0
:100090001B0100081B0100081B0100081B010008D0
:1000A0001B0100081B0100081B0100081B010008C0
:1000B000491600081B0100081B0100081B0100086D
:1000C0001B0100081B0100081B0100081B010008A0
:1000D0001B010008C11900081B0100081B010008D2
:1000E0001B0100081B0100081B010008DFF80CD0F1
:1000F00000F018F800480047ED190008D00C002067
:100100000648804706480047FEE7FEE7FEE7FEE7B1
:10011000FEE7FEE7FEE7FEE7FEE7FEE70116000862
:10012000ED000008064C074D06E0E06840F00103D2
:1001300094E8070098471034AC42F6D3FFF7DAFF93
:10014000C81A0008E81A000870B5044600688168FB
:10015000C943C9071CD1816821F00101816000F009
:100160008BFA05460FE000BF00F086FA401B02281C
:1001700009D9A06A40F01000A062E06A40F00100D6
:10018000E062012070BD20688068C043C007EBD0EA
:10019000002070BDFEE77047042000F079B9000030
:1001A000F8B50024009490F824202546012A12D0A6
:1001B000012280F824204A681F23072A0DD20668EE
:1001C000776B521E02EB820293409F430B68934071
:1001D0001F43776319E00220F8BD06680D2A0AD292
:1001E000376BD21F02EB820293409F430B68934010
:1001F0001F43376309E0F76A0D3A02EB820293402E
:100200009F430B6893401F43F7620A680723066801
:100210000A2A0AD3F7680A3A02EB420293409F4344
:100220008B6893401F43F76008E0376902EB420296
:1002300093409F438B6893401F4337610A68102A9D
:1002400001D0112A20D1124B02689A4217D193682B
:100250001B0219D4936843F40003936009681029C2
:1002600012D10C490C4A0968B1FBF2F101EB810192
:10027000490000E0491E00910029FBD104E0816A99
:1002800041F020018162012480F824502046F8BD0D
:10029000002401401C00002040420F002DE9F041E5
:1002A0004FF0000704003D467ED0A06A002628B922
:1002B000E66284F82460204600F07EF82046FFF7CE
:1002C00043FFA16AC90600D420B1A06A40F0100023
:1002D000A06269E0A16A21F4885141F00201A162A3
:1002E0006268E169E3680A4347EA43010A43A16897
:1002F0004FF48077B94209D0012907D05FF000019F
:10030000D4F814C0BCF1010F02D00AE03946F7E777
:10031000F3B1A36A43F02003A362E36A43F001034D
:10032000E3622368D3F804C02CF4694C4CEA010C56
:10033000C3F804C021688B68DFF870C003EA0C03BF
:1003400013438B60A168B9420BD0012909D00CE09E
:10035000DFF85CC0A3690CEB43330B4343F400614B
:10036000DFE7218A0D05A5F580152168CB6A23F406
:1003700070032B43CB62216889680E4B1940914270
:1003800008D1E662A16A21F0020141F00101A162F7
:10039000BDE8F081A06A20F0020040F01000A062E9
:1003A000E06A40F00100E0620120F1E7FDF7E1FFC3
:1003B00000E0FFFFFE0E1FFF00B500680A4985B090
:1003C00088420FD10948816941F4007181618069D7
:1003D000694600F4007004900320009001900448E6
:1003E00000F062F805B000BD00240140001002409A
:1003F0000008014010B590F821100024022903D014
:100400000421816301243DE001680A6822F00E02A4
:100410000A6001680A6822F001020A601A4A01684B
:10042000914201D1012121E0174A1432914201D1B8
:1004300010211BE0144A2832914201D1891515E0A0
:10044000114A3C32914201D189140FE00E4A5032D8
:10045000914202D14FF4803108E00B4A643291425C
:1004600002D14FF4801101E04FF08071064A083A42
:100470005160012180F82110002180F82010416B8B
:1004800001B18847204610BD0800024070470000B7
:10049000044910B50A68024202D00860FFF7F6FF6F
:1004A00010BD0000140401402DE9F84FDFF890A1C1
:1004B00000220AF1040B144601274FF00F090BF13B
:1004C000040E00BF0B6807FA04F52B40AB4274D151
:1004D000DFF870C14E68A6EB0C0866452BD00DDC2A
:1004E000032E34D005DC36B3012E19D0022E2FD1C5
:1004F0001BE0112E16D0122E2AD119E0B8F5881F54
:1005000019D006DCB8F5803F15D0B8F5801F1FD193
:1005100011E0B8F5001F0ED0B8F5041F18D10AE09D
:10052000CA6815E0CA68121D12E0CA6808320FE0F6
:10053000CA680C320CE08A682AB1012A4FF008021E
:1005400003D0456104E0042202E0056100E00022DE
:10055000FF2B01D8064601E000F104064FEA8405AE
:1005600001D9A5F12005D6F800C009FA05F82CEA52
:10057000080C02FA05F54CEA050CC6F800C04D68F7
:10058000ED0057D5304DAE6946F00106AE61AD695C
:1005900024F0030605F0010500952C4D06EB050C33
:1005A000DCF80850A6074FEA167809FA08F6B543B2
:1005B000274EB04202D1002610E03BE0254EB0426B
:1005C00001D101260AE0244EB04201D1022605E005
:1005D000224EB04201D1032600E0042606FA08F6B6
:1005E0002E43CCF808604D68DAF80060ED035546FC
:1005F00001D51E4300E09E432E604D68DBF800608D
:10060000AD035D4601D51E4300E09E432E604D685C
:10061000DEF80060ED02754601D51E4300E09E4302
:100620002E604D68AD020E4D2E6801D51E4300E0D0
:100630009E432E60641C102CFFF444AFBDE8F88F7D
:1006400000040140000011100010024000000140B1
:1006500000080140000C014000100140001401405E
:100660000C040140C2684A40C26070470AB101618F
:1006700070470904FBE700000148806870470000EC
:1006800010000020024881680278114481607047A0
:1006900010000020074810B5016841F0100101600A
:1006A000032000F09DF8002000F006F800F024F888
:1006B000002010BD0020024070B50D4D04464FF4DF
:1006C0007A712878B1FBF0F00A490968B1FBF0F0C3
:1006D00000F0A3FB48B9102C07D200222146501E7F
:1006E00000F05EF800206C6070BD012070BD00005D
:1006F000100000201C000020214808B5816941F04D
:1007000001018161816901F001010091C16941F03C
:100710008051C161C06900F080500090032000F05A
:100720005FF8002211466FF00B0000F039F800224C
:1007300011466FF00A0000F033F8002211466FF006
:10074000090000F02DF800221146501F00F028F893
:1007500000221146101F00F023F800221146901EBF
:1007600000F01EF800221146501E00F019F805484E
:10077000416821F0E06141F08061416008BD000006
:10078000001002400000014000F01F0201219140D2
:100790004009800000F1E020C0F80011704700001F
:1007A000F0B40E4B1B680C46C3F30223C3F10705DC
:1007B000042D00D90425191D072901D2002300E0CA
:1007C000DB1E012606FA05F1491E214099409E4094
:1007D000761E16403143F0BC00F0C4BE0CED00E0C4
:1007E000064900F0070208684FF6FF03184040EA88
:1007F0000220034A10430860704700000CED00E03F
:100800000000FA052DE9F84305460078354CC0078D
:1008100054D0E0690026C00008D4E06940F0805060
:10082000E061E069012600F0805000902E480168E8
:10083000C90512D40168804641F480710160FFF758
:100840001BFF074605E000BFFFF716FFC01B64282B
:1008500023D8D8F80000C005F6D5206A10F44070FF
:1008600021D0A98801F4407181421CD0206A1F491F
:10087000012220F440700A6000220A602062C00752
:1008800011D0FFF7F9FE074641F2883808E000BFB3
:10089000FFF7F2FEC11B414502D90320BDE8F883F2
:1008A000206A8007F4D5206A696820F44070084304
:1008B00020621EB1E06920F08050E0612878800756
:1008C00005D56068A96820F4404008436060287836
:1008D000C00605D56068E96820F4800008436060C0
:1008E0000020DBE70010024000700040400442425C
:1008F0002DE9F047DFF83C8105460E46D8F80000A8
:1009000000F00700B0420CD2D8F8001021F0070127
:100910003143C8F80010D8F8000000F00700B042DA
:1009200063D12878444C800705D56068A96820F019
:10093000F000084360602878C00745D06868012847
:1009400016D02168022816D0890700294DDA61687F
:1009500021F0030101436160FFF78EFE69680746DD
:1009600041F2883001290FD00229814619D027E0B1
:1009700021688903E9E78901E7E700BFFFF77CFE0B
:10098000C11B494501D918E081466068C0F3810068
:100990000128F3D118E000BFFFF76EFEC11B4945E7
:1009A0000BD86068C0F381000228F5D10CE000BFCD
:1009B000FFF762FEC11B494502D90320BDE8F0875D
:1009C000606810F00C0FF3D1D8F80010404601F029
:1009D0000701B1420BD9016821F0070131430160E1
:1009E000006800F00700B04201D00120E6E7287857
:1009F000400705D56068E96820F4E060084360605E
:100A00002878000706D56068296920F4605040EA1C
:100A1000C100606000F03CF86168084AC1F303114E
:100A2000515CC840064908600020FFF745FE0020E1
:100A3000C4E700000020024000100240B01A000885
:100A40001C00002001480068704700001C000020C6
:100A50000448054900684968044AC1F30221515C11
:100A6000C84070471C00002000100240C01A000857
:100A70000448054900684968044AC1F3C221515C31
:100A8000C84070471C00002000100240C01A000837
:100A900012A185B00FC98DE80F0014A0144A006898
:100AA00004905168134801F00C03042B10D0082B5C
:100AB0000ED1C1F38343C9031DF803000AD5516861
:100AC00004AAC1F34041515C0A4A5043B0FBF1F023
:100AD00005B0704708494843FAE7000002030405DF
:100AE000060708090A0B0C0D0E0F1010010200007A
:100AF0000010024000127A0000093D002DE9F84F75
:100B000004460078B94DC00748D06868C0F381003A
:100B1000012807D06868C0F38100022809D16868FD
:100B2000C00306D52868800338D5606800286FD0D8
:100B300034E06068B0F5803F0BD010B1B0F5A02F65
:100B400011D0286820F480302860286820F48020A4
:100B500002E0286840F480302860606888B1FFF7C0
:100B60008BFD064609E0286840F480202860F0E705
:100B7000FFF782FD801B642875D828688003F7D5AD
:100B80000CE0FFF779FD064605E000BFFFF774FDB6
:100B9000801B6428F0D828688003F7D42078944E0E
:100BA00080074FF001094FF000083BD5686810F04E
:100BB0000C0F07D06868C0F38100022809D168686B
:100BC000C00306D42868800714D5206901281FD1E6
:100BD00010E02069B0B1C6F80090FFF74DFD074660
:100BE00005E000BFFFF748FDC01B0228C4D82868F5
:100BF0008007F7D52868616920F0F80040EAC10055
:100C000028600FE0C6F80080FFF736FD074606E0D3
:100C1000E9E000BFFFF730FDC01B022823D8286899
:100C20008007F7D4207800072CD57248A169D9B184
:100C3000C0F80090FFF720FD074604E0FFF71CFD19
:100C4000C01B02280FD8686A8007F7D56A484FF49E
:100C5000FA510068B0FBF1F0009000BF0098411E0F
:100C60000091FAD20EE080E0C0F80080FFF704FDAA
:100C7000074604E0FFF700FDC01B022875D8686A2C
:100C80008007F7D42078400760D5E8690027C000C6
:100C900008D4E86940F08050E861E869012700F075
:100CA0008050009055480168C90513D401688346F7
:100CB00041F480710160FFF7DFFC824606E000BF6F
:100CC000FFF7DAFCA0EB0A0064284ED8DBF800003E
:100CD000C005F5D5E06801280AD008B1052813D071
:100CE000286A20F001002862286A20F0040002E04F
:100CF000286A40F001002862E06841F2883B98B120
:100D0000FFF7BAFC82460BE0286A40F00400286234
:100D1000EEE700BFFFF7B0FCA0EB0A0159455AD837
:100D2000286A8007F6D50CE0FFF7A6FC824605E0AE
:100D3000FFF7A2FCA0EB0A0159454CD8286A8007AE
:100D4000F6D41FB1E86920F08050E861E06988B30B
:100D50006968C1F38101022945D00228C6F8608084
:100D600004D0FFF789FC044638E034E0FFF784FC48
:100D7000074604E0FFF780FCC01B02282BD8286838
:100D80008001F7D4206AB0F5803F05D16868A1687A
:100D900020F4003008436860D4E90801084369681A
:100DA00021F4741108436860C6F86090FFF764FC92
:100DB000044606E015E000BFFFF75EFC001B0228BA
:100DC00009D828688001F7D50BE000BFFFF754FC75
:100DD000001B022802D90320BDE8F88F2868800193
:100DE000F4D40020F8E70120F6E7000000100240EC
:100DF00000004242800442421C000020007000407B
:100E00004FF0E0210428086903D020F004000861B5
:100E1000704740F00400FAE7704710B5401EB0F18B
:100E2000807F01D3012010BD4FF0E02460610F21CD
:100E3000601700F097FB0020A061072020610020D0
:100E400010BD10B5FFF7E8FF10BD7047704730B513
:100E500090F83C20012A20D0012280F83C20022377
:100E600080F83D3003685C6824F070045C600368BF
:100E70005C680D682C435C6003689C6824F0800407
:100E80009C6003689C6849680C439C6080F83D2026
:100E9000002180F83C10084630BD022030BD10B55E
:100EA000040003D094F83D0010B107E0012010BD0C
:100EB000002084F83C00204600F00CF8022084F862
:100EC0003D00211D206800F0C5FB012084F83D0095
:100ED000002010BD08B50068B0F1804F08D105486A
:100EE000C16941F00101C161C06900F001000090D9
:100EF00008BD0000001002400168CA6842F001020B
:100F0000CA600068016841F001010160002070477B
:100F100070B5044690F83C00012817D0012584F8EC
:100F20003C50022084F83D002068826822F077025D
:100F300022F47F4282600868502837D00DDC2028D8
:100F400059D005DC88B3102841D151E0022070BD92
:100F5000302853D040283AD13FE060282ED0702866
:100F60000BD0B0F5805F03D0B0F5005F2FD110E05B
:100F70002068816821F0070115E0CB68D1E90121E3
:100F8000206800F09DFB2168886840F07700886049
:100F90001DE0CB68D1E90121206800F091FB2068B9
:100FA000816841F48041816011E01EE0CA684968AF
:100FB000206800F097FB5021206806E0CA68496865
:100FC000206800F0A0FB6021206800F083FB84F81B
:100FD0003D50002084F83C0070BDCA684968206814
:100FE00000F080FB40212068EFE700212068ECE75B
:100FF00010212068E9E720212068E6E730212068F9
:10100000E3E7704770B50446006801694FF00005DA
:10101000C943890715D4C168C943890711D4E91E9A
:10102000016101202077206880698007204602D076
:10103000FFF7E7FF04E000F098F8204600F096F88C
:10104000257720680169C943490717D4C168C94396
:10105000490713D46FF00401016102202077206852
:10106000806910F4407F204602D0FFF7CAFF04E0F9
:1010700000F07BF8204600F079F8257720680169B8
:10108000C943090716D4C168C943090712D46FF0D0
:1010900008010161042020772068C069800720468C
:1010A00002D0FFF7AEFF04E000F05FF8204600F04A
:1010B0005DF8257720680169C943C90617D4C1685E
:1010C000C943C90613D46FF01001016108202077CD
:1010D0002068C06910F4407F204602D0FFF791FFDE
:1010E00004E000F042F8204600F040F82577206840
:1010F0000169C943C90708D1C168C943C90704D1F7
:10110000891E0161204600F033F820680169C94357
:10111000090609D4C168C943090605D46FF08001E6
:1011200001612046FFF791FE20680169C943490625
:1011300009D4C168C943490605D46FF04001016173
:10114000204600F01DF820680169C94389060BD4C8
:10115000C168C943890607D46FF0200101612046A8
:10116000BDE87040FFF772BE70BD70477047000069
:101170004FF400510148FFF775BA0000001001401C
:101180007047704770B5026804461068D1685369AB
:1011900010F00F0F50D003F0010501F490763543A5
:1011A0005DD0C20705D0CA0503D5E26B42F001024B
:1011B000E263420705D5DA0703D0E26B42F0020290
:1011C000E263820705D5DA0703D0E26B42F004023E
:1011D000E263020705D5DA0703D0E26B42F00802AA
:1011E000E263E26B002A33D0800604D5880602D57C
:1011F000204600F0B0FA20684069E16BC0F380102F
:10120000090700D428B3204600F097FA2068416906
:1012100049061AD5416921F040014161606BA0B1D6
:101220001B494163606BFFF7E5F8002810D0606B45
:10123000416BBDE870400847830610D58B060ED57C
:101240002046BDE8704000F086BA2046FFF799FFBF
:1012500070BD2046FFF795FF0020E06370BD0306D8
:1012600006D50B0604D52046BDE8704000F076BBDD
:101270004006F3D54806F1D5D168204621F040015B
:10128000D160202184F8391000F0D2F870BD000040
:101290002B17000870B5040004D094F8390000251D
:1012A00010B106E0012070BD84F83850204600F0EF
:1012B00023F8242084F839002068C16821F4005103
:1012C000C160204600F092FA2068016921F4904143
:1012D00001612068416921F02A0141612068C168EB
:1012E00041F40051C160E563202084F8390084F89E
:1012F0003A00002070BD000010B50068114986B0AA
:1013000088421DD11048816941F480418161806922
:101310000E4C00F4804004904FF4007000900220C6
:1013200001900320039069462046FFF7BDF8002195
:101330002015CDE90001029169462046FFF7B4F877
:1013400006B010BD00380140001002400008014006
:1013500090F83A30202B22D1F9B1F2B190F8383020
:10136000012B1CD081628285C2850021C1632222AB
:1013700080F83A2080F838100168CA6842F4807218
:10138000CA6001684A6942F001024A610068C168A6
:1013900041F02001C1600020704701207047022009
:1013A000704700000F4830B4017A0F4B491CCAB295
:1013B0009918826011F8014C5A2C01D0C56801E0DF
:1013C000551EC5605B5D5A2B06D1A52C04D1521B5E
:1013D000521E02700122427030BC01220348FFF706
:1013E000B7BF000000000020D004002090000020C3
:1013F00090F83930202B18D1A9B1A2B190F838302B
:10140000012B12D001628284C2840021C163212297
:1014100080F8392080F838100068C16841F08001F8
:10142000C160002070470120704702207047000013
:1014300002484168491C41607047000000000020DC
:10144000FEE700003EB50F4800240D498460C460EB
:1014500044610160012505614FF460214460C16170
:10146000FEF71CFF00B1FEE7CDE9004569460548DF
:101470000294FEF795FE002800D0FEE73EBD000076
:10148000002401402000002030B51C4885B081694F
:1014900041F010018161816901F0100104918169BD
:1014A00041F0040181618069154D00F004004FF4A2
:1014B00000540490002221462846FFF7D7F8012067
:1014C000CDE9004000240220CDE9024069462846CB
:1014D000FEF7EAFF042000900A48CDE901040A4D16
:1014E00069462846FEF7E0FF1820CDE9000469466A
:1014F00028460294FEF7D8FF05B030BD0010024028
:1015000000100140000011100008014010B5134800
:1015100086B04FF0804101604FF4FA510024C0E9D9
:1015200001140911C0E903148461FFF7B8FC00B18C
:10153000FEE74FF48050009069460848FFF7E8FC4A
:1015400000B1FEE7049404A904480594FFF77FFC6A
:10155000002800D0FEE706B010BD000050000020BB
:10156000FEE770470907090E002806DA00F00F00B1
:1015700000F1E02080F8141D704700F1E02080F8B1
:10158000001470477047704710B5FFF77BF8BDE84F
:101590001040FFF756BC30B593B0012002250490EF
:1015A000009510200024059007946846FFF7A6FADE
:1015B00000B1FEE70F20CDE90A040C940D94002140
:1015C0000AA80E94FFF794F900B1FEE70FA80F9553
:1015D0001194FFF717F900B1FEE7FFF733FA4FF464
:1015E0007A71B0FBF1F0FFF718FC0420FFF708FC5C
:1015F00000221146501EFFF7D3F813B030BD000093
:101600000D48016841F00101016041680B4A114039
:10161000416001680A4A11400160016821F480219B
:101620000160416821F4FE0141604FF41F018160B7
:101630000449C00308607047001002400000FFF832
:10164000FFFFF6FE08ED00E00148FFF7DBBC0000FD
:1016500050000020F0B50268164B174C174D4FF0A4
:101660008047984205D0B84203D0A04201D0A8429A
:1016700003D122F070064A683243984205D0B8423E
:1016800003D0A04201D0A84203D122F44074CA681A
:10169000224322F080044A69224302608A68C262BF
:1016A0000A688262984201D109690163012141619E
:1016B000F0BD0000002C0140000400400008004084
:1016C00010B5846842EA032224F47F440A4322438B
:1016D000826010BD826822F070020A4342F0070166
:1016E0008160704710B5036A046A24F00104046243
:1016F000846924F0F00444EA021423F00A020A4345
:101700008461026210BD10B5036A23F01003036206
:101710008369046A23F4704343EA023224F0A0038D
:1017200043EA01118261016210BD10B5406A0021D7
:10173000C185C184FFF725FD10BD0168CA6822F488
:101740009072CA6001684A6922F001024A61202150
:1017500080F83A10704710B590F83A10222901D05D
:10176000022010BD8168B1F5805F11D001690029A8
:1017700001681FD0496801F07F03816A4A1C8262B8
:101780000B70C18D491E0904090CC18518D02BE0CE
:101790000269816A002A0268526805D0D2B20A80C2
:1017A000816A491C8162ECE7C2F308020A80816AFF
:1017B000891CF7E74A68816A4B1C83620A70E0E77C
:1017C0000168CA6822F02002CA600168CA6822F46F
:1017D0008072CA6001684A6922F001024A612021D0
:1017E00080F83A10FFF7DEFD002010BD2DE9F04132
:1017F000044600680169E26821F440511143016127
:101800002169A0680843616908432168CA6841F2F8
:101810000C639A430243CA6020684169A26921F4BB
:101820004071114341614C49206864253226884249
:101830003CD1FFF71DF900EBC00101EB001061681E
:101840008900B0FBF1F7FFF713F900EBC00101EBE2
:1018500000106168B0468900B0FBF1F0B0FBF5F014
:101860006FF01801484307EB800106EB0110B0FB55
:10187000F5F000F0F006FFF7FBF800EBC00101EB1C
:10188000001061688900B0FBF1F0B0FBF5F006EBE9
:101890000016FFF7EDF800EBC00101EB00106168E6
:1018A0008900B0FBF1F7FFF7E3F83BE0FFF7D0F872
:1018B00000EBC00101EB001061688900B0FBF1F79B
:1018C000FFF7C6F800EBC00101EB00106168B046FD
:1018D0008900B0FBF1F0B0FBF5F06FF01801484360
:1018E00007EB800106EB0110B0FBF5F000F0F0060D
:1018F000FFF7AEF800EBC00101EB00106168890052
:10190000B0FBF1F0B0FBF5F006EB0016FFF7A0F826
:1019100000EBC00101EB001061688900B0FBF1F73A
:10192000FFF796F800EBC00101EB00106168890039
:10193000B0FBF1F0B0FBF5F06FF01801484307EB96
:10194000800108EB0110B0FBF5F0216800F00F00FA
:1019500030448860BDE8F0810038014090F83910CB
:10196000212901D0022070478168B1F5805F016AAA
:101970000BD04A1C0262026809785160C18C491E72
:101980000904090CC1840ED017E009880268C1F36C
:101990000801516001690029016A02D0491C0162F5
:1019A000ECE7891CFBE70168CA6822F08002CA6084
:1019B0000068C16841F04001C1600020704700002C
:1019C0000148FFF7DFBB000090000020FEE702E0C7
:1019D00008C8121F08C1002AFAD1704770470020BA
:1019E00001E001C1121F002AFBD17047FEF752FE31
:1019F000FFF7D1FDFFF748FD2A482949002701607C
:101A00004FF4E131C0E901170C21C760C0E904714E
:101A10008761C761FFF73EFC00B1FEE7FFF712FDEB
:101A2000FFF774FD002211462520FEF7B9FE2520A0
:101A3000FEF7AAFE002211460820FEF7B1FE08209C
:101A4000FEF7A2FE002211461C20FEF7A9FE1C2074
:101A5000FEF79AFE13484038FFF74EFA134C124D2A
:101A60000122A06829180F48FFF772FCA5F58066CF
:101A700060780028FCD00020227806E0E1686B182E
:101A8000491C5B783354401CE1609042F6DB054909
:101A900004484031FFF7ACFCA760E7606770E7E7F8
:101AA0000038014090000020D004002000000020F9
:101AB00000000000000000000102030406070809FE
:101AC0000000000001020304E81A000800000020E2
:101AD00020000000CE190008081B0008200000208C
:101AE000B00C0000DE19000800000000000000003B
:101AF00000000000000000000100000010000000D5
:081B00000000000000A24A04ED
:04000005080000ED02
:00000001FF
